:100000000FC028C027C049C025C024C023C022C0BB
:1000100021C020C01FC01EC01DC01CC01BC0D600F8
:1000200011241FBECFE5D2E0DEBFCDBF20E0A0E6A9
:10003000B0E001C01D92AD36B207E1F710E0C0E1BB
:10004000D0E003C02197FE01BCD0CF30D107D1F75B
:100050008DD0BDC0D5CF80B7806880BF80B78E609F
:1000600080BF8AE78DBD89B7806489BF0895BB9A38
:100070000895882311F0C39A0895C3980895F894B9
:1000800085B7877E85BF85B7806285BFF8947894F1
:10009000889585B78F7D85BF08951F920F920FB603
:1000A0000F9211248F939F93AF93BF93809166001B
:1000B000909167000196909367008093660080910D
:1000C000620090916300A0916400B0916500019678
:1000D000A11DB11D8093620090936300A093640002
:1000E000B093650080916C008F5F8C3318F480931F
:1000F0006C001FC010926C0080916B008F5F8C337E
:1001000018F480936B0015C010926B0080916A0008
:100110008F5F893118F480936A000BC010926A00D7
:100120008091680090916900019690936900809396
:100130006800BF91AF919F918F910F900FBE0F906C
:100140001F901895C39A89EF90E00197F1F700C0CE
:10015000000080E08EDF83ED90E30197F1F700C0AF
:1001600000001092670010926600089580DF73DF30
:100170007894C39A89EF90E00197F1F700C00000EE
:1001800080E077DF9FE32DE083E0915020408040C6
:10019000E1F700C0000073DF80916A008130D9F779
:1001A00080916B008E31B8F7CDDFF6CFE8E6F0E056
:1001B00084E091E09183808388E0828313821482BB
:1001C0000895EE0FFF1F0590F491E02D0994F89427
:0201D000FFCF5F
:00000001FF
