:1000000009C016C015C014C013C012C012C010C061
:100010000FC00EC011241FBECFE9CDBF20E0A0E667
:10002000B0E001C01D92AA36B207E1F7AAD0D1C054
:10003000E7CF1F920F920FB60F9211248F939F93C9
:10004000809166008853809366008091660080915D
:10005000640090916500CC97F8F0109265001092C2
:100060006400809167008F5F8093670080916700D4
:100070008C3390F010926700809168008F5F8093BE
:10008000680080916800893138F010926800809192
:1000900069008F5F809369009F918F910F900FBED1
:1000A0000F901F901895F89485B7877E85BF85B708
:1000B000806285BFF8947894889585B78F7D85BFD9
:1000C00008954091600050916100609162007091CC
:1000D000630084E6C82ED12CE12CF12C94EF892EFC
:1000E00099249394A12CB12CC39AD501C40118165C
:1000F00019061A061B0654F4E9EFF0E03197F1F700
:1001000000C000000197A109B109F1CFC3981C14E8
:100110001D041E041F048CF4D701C601E9EFF0E0B2
:100120003197F1F700C000000197A109B109B1F7BB
:10013000F1E0CF1AD108E108F1088FEF881A980A88
:10014000A80AB80A8091600090916100A0916200B5
:10015000B0916300841B950BA60BB70B0297A1050A
:10016000B10508F4C1CF9FDF9EDF9DDF9CDF9BDFE1
:100170004091600050916100609162007091630055
:10018000B3CFBB9A8FB582608FBD83B7856083BFC5
:1001900086EC86BF89B7846089BF7894C39A89EF5B
:1001A00090E00197F1F700C00000C3989FE32DE0B5
:1001B00083E0915020408040E1F700C0000073DFF1
:1001C000809168008130D9F7809167008E31B8F74F
:0601D00078DFF894FFCF78
:00000001FF
