:1000000019C04BC027C026C025C024C023C022C0B1
:1000100021C020C01FC01EC01DC01CC01BC01AC0F4
:1000200019C018C017C016C015C014C013C012C024
:1000300011C010C011241FBECFEFD4E0DEBFCDBF72
:1000400021E0A0E0B1E001C01D92A630B207E1F7C7
:10005000AFD0D4C0D5CF389A0895239A83EA84BD0F
:1000600091E095BD8093B00087E08093B10080E877
:100070008093B3000895882311F0409A0895409822
:100080000895882311F05F9A08955F980895882352
:1000900011F0289A0895289808951F920F920FB68C
:1000A0000F9211242F933F934F935F936F937F93FE
:1000B0008F939F93AF93BF93EF93FF931DBA80E00D
:1000C000DADF80E0DEDF80E0E2DF80910201909104
:1000D00003018230910519F483E090E01CC0813067
:1000E000910519F485E090E016C08530910519F46A
:1000F00086E090E010C08630910519F484E090E02D
:100100000AC08430910519F482E090E004C003979E
:1001100031F481E090E090930301809302012FE994
:1001200086E891E0215080409040E1F700C0000057
:10013000FF91EF91BF91AF919F918F917F916F91BF
:100140005F914F913F912F910F900FBE0F901F9095
:100150001895F894EBE6F0E080818E7F8083E89834
:100160000895409A5F9A289A2FE78AE196E02150F5
:1001700080409040E1F700C0000080E07CDF80E03C
:1001800080DF80E084DFF894EBE6F0E0808181603E
:100190008083E89A83B7817F846083BF83B781605F
:1001A00083BFF8947894889583B78E7F83BF089532
:1001B00052DF53DFC0E0D7E0409A8091B1008B7FDF
:1001C0008093B1002FE78AE196E021508040904073
:1001D000E1F700C0000080E04EDFD093B1002FE7D0
:1001E0008AE196E0215080409040E1F700C0000095
:1001F000CF5FC33009F72B98B4DFDECFF894FFCF81
:00000001FF
