:100000000EC01DC01CC03EC01AC019C018C017C009
:1000100016C015C014C013C012C011C010C01124E6
:100020001FBECFE5D2E0DEBFCDBF20E0A0E6B0E04E
:1000300001C01D92A836B207E1F752D081C0E0CFCF
:1000400080B7806880BF80B78E6080BF8AE78DBD33
:1000500089B7806489BF0895BB9A0895882311F0F9
:10006000C39A0895C3980895F89485B7877E85BF8D
:1000700085B7806285BFF8947894889585B78F7D21
:1000800085BF08951F920F920FB60F9211248F9380
:100090009F93AF93BF938091660090916700019604
:1000A0009093670080936600809162009091630056
:1000B000A0916400B09165000196A11DB11D8093CF
:1000C000620090936300A0936400B0936500BF91B9
:1000D000AF919F918F910F900FBE0F901F90189529
:1000E000BBDFAEDF7894C39A89EF90E00197F1F718
:1000F00000C0000080E0B2DF9FE32DE083E091507C
:1001000020408040E1F700C00000AEDF8091660033
:1001100090916700CB97D1F7C39A89EF90E0019750
:10012000F1F700C0000080E099DF83ED90E30197D4
:10013000F1F700C000001092670010926600E5CF52
:04014000F894FFCF61
:00000001FF
