:100000000FC028C027C049C025C024C023C022C0BB
:1000100021C020C01FC01EC01DC01CC01BC0550178
:1000200011241FBECFE5D2E0DEBFCDBF20E0A0E6A9
:10003000B0E001C01D92AD36B207E1F710E0C0E1BB
:10004000D0E003C02197FE013BD1CF30D107D1F7DB
:100050000CD13CC1D5CFC39A089580B7806880BFCA
:1000600080B78E6080BF8AE78DBD89B7806489BF05
:100070000895BB9A08958111EECFC3980895F8941E
:1000800085B7877E85BF85B7806285BFF8947894F1
:10009000889585B78F7D85BF08951F920F920FB603
:1000A0000F9211248F939F93AF93BF93809166001B
:1000B000909167000196909367008093660080910D
:1000C000620090916300A0916400B0916500019678
:1000D000A11DB11D8093620090936300A093640002
:1000E000B093650080916C008F5F8C3318F480931F
:1000F0006C001FC010926C0080916B008F5F8C337E
:1001000018F480936B0015C010926B0080916A0008
:100110008F5F893118F480936A000BC010926A00D7
:100120008091680090916900019690936900809396
:100130006800BF91AF919F918F910F900FBE0F906C
:100140001F90189516161706180619065CF4E3ECAE
:10015000F9E03197F1F700C000006A507109810998
:100160009109F0CF089577DF89EF90E00197F1F7DB
:1001700000C0000080E07FDF83ED90E30197F1F79E
:1001800000C0000010926700109266000895409031
:10019000620050906300609064007090650084E697
:1001A000C82ED12CE12CF12C94EF892E9924939414
:1001B000A12CB12C50DFC501B401C4DF80E05BDFAE
:1001C0001C141D041E041F0444F4C701B601BADF49
:1001D00081E0C81AD108E108F1088FEF881A980A5F
:1001E000A80AB80A8091620090916300A09164000F
:1001F000B091650084199509A609B7090297A10570
:10020000B105C0F23CDF3BDF3ADF39DF38DF409039
:100210006200509063006090640070906500CACFE7
:1002200088EEC82E83E0D82EE12CF12C94EF892E95
:1002300099249394A12CB12C0EDFC501B40182DF67
:1002400080E019DF1C141D041E041F042CF481E03F
:10025000C81AD108E108F108C701B60173DF8FEFB2
:10026000881A980AA80AB80AE7CF03DFF6DE78945E
:10027000F2DE89EF90E00197F1F700C0000080E026
:10028000FADE9FE32DE083E0915020408040E1F7CB
:1002900000C00000F4DE80916A008130D9F78091BF
:1002A0006B008E31B8F75FDFF6CFE8E6F0E084E070
:1002B00091E09183808388E0828313821482089581
:1002C000EE0FFF1F0590F491E02D0994F894FFCFF5
:00000001FF
