:100000000AC021C020C01FC01EC01DC03FC01BC0F1
:100010001AC019C05A0111241FBECFE9CDBF20E07C
:10002000A0E6B0E001C01D92AE36B207E1F710E0E5
:10003000CBE0D0E003C02197FE0147D1CA30D10701
:10004000D1F718D148C1DCCFC39A08958FB582602B
:100050008FBD83B7856083BF86EC86BF89B7846018
:1000600089BF0895BB9A08958111EECFC398089572
:10007000F89485B7877E85BF85B7806285BFF89481
:100080007894889585B78F7D85BF08951F920F92CC
:100090000FB60F9211248F939F93AF93BF938091CC
:1000A00068008F5F8093680080916800823019F546
:1000B000809166009091670001969093670080930D
:1000C00066008091620090916300A0916400B091FD
:1000D00065000196A11DB11D80936200909363009D
:1000E000A0936400B093650080916D008F5F809352
:1000F0006D001092680080916D008C33F8F01092C2
:100100006D0080916C008F5F8C3318F480936C00CD
:1001100015C010926C0080916B008F5F893118F4CC
:1001200080936B000BC010926B00809169009091DE
:100130006A00019690936A0080936900BF91AF9125
:100140009F918F910F900FBE0F901F9018951616CC
:100150001706180619065CF4E3ECF9E03197F1F79D
:1001600000C000006A50710981099109F0CF08951B
:100170006BDF89EF90E00197F1F700C0000080E0AD
:1001800073DF83ED90E30197F1F700C00000109258
:1001900067001092660008954090620050906300DE
:1001A000609064007090650084E6C82ED12CE12C2C
:1001B000F12C94EF892E99249394A12CB12C44DF37
:1001C000C501B401C4DF80E04FDF1C141D041E0410
:1001D0001F0444F4C701B601BADF81E0C81AD10890
:1001E000E108F1088FEF881A980AA80AB80A8091E6
:1001F000620090916300A0916400B0916500841941
:100200009509A609B7090297A105B105C0F230DF2B
:100210002FDF2EDF2DDF2CDF409062005090630037
:100220006090640070906500CACF88EEC82E83E0AD
:10023000D82EE12CF12C94EF892E99249394A12CA3
:10024000B12C02DFC501B40182DF80E00DDF1C1498
:100250001D041E041F042CF481E0C81AD108E10813
:10026000F108C701B60173DF8FEF881A980AA80A50
:10027000B80AE7CFF7DEEADE7894E6DE89EF90E0B1
:100280000197F1F700C0000080E0EEDE9FE32DE073
:1002900083E0915020408040E1F700C00000E8DE9C
:1002A00080916B008130D9F780916C008E31B8F766
:1002B0005FDFF6CFE9E6F0E084E091E091838083B0
:1002C00088E08283138214820895EE0FFF1F059049
:0A02D000F491E02D0994F894FFCF9B
:00000001FF
